:020000001628C0
:0E0006008312031325088A00240882000800D4
:1000140003208A110A128000840AA40A0319A50A7B
:08002400F003031D0A28080087
:10002C00023083120313A000A101A201A3018316C5
:10003C00860188018701071088160817831286012C
:10004C00880187010714881A2E28081B2E28A82837
:10005C00071587170230A0000030A100023088007D
:10006C000330A2000030A30080302306F000803063
:10007C007002031D432800302202031C5A28220858
:10008C0086000630FB001330FC00AD30FD00FD0B8C
:10009C004D28FC0B4D28FB0B4D28000000000130B7
:1000AC00A202031CA3033A280130A002031CA103E3
:1000BC0080302106F00080307002031D672800306C
:1000CC002002031CA628200888000930A20000305A
:1000DC00A30080302306F00080307002031D7828C6
:1000EC0000302202031CA128220886000630FB00E7
:1000FC001330FC00AD30FD00FD0B8228FC0B822878
:10010C00FB0B82280000000000302306031D902802
:10011C0004302206031D9C2800302106031D98285C
:10012C0000302006031D9C28871307170130A202FC
:10013C00031CA3036F280130A002031CA1035E283B
:10014C0007130711881AAD28081FAD282B2987160D
:10015C0007160130A0000030A100013088000530E6
:10016C00A2000030A30080302306F0008030700223
:10017C00031DC22800302202031CD9282208860045
:10018C000630FB001330FC00AD30FD00FD0BCC281D
:10019C00FC0BCC28FB0BCC28000000000130A20289
:1001AC00031CA303B9280130A002031CA103803057
:1001BC002106F00080307002031DE628003020027A
:1001CC00031C2529200888000930A2000030A30058
:1001DC0080302306F00080307002031DF7280030B9
:1001EC002202031C2029220886000630FB00133053
:1001FC00FC00AD30FD00FD0B0129FC0B0129FB0BB4
:10020C0001290000000000302306031D0F290430D3
:10021C002206031D1B2900302106031D172900305F
:10022C002006031D1B29071287150130A202031C8F
:10023C00A303EE280130A002031CA103DD288711C3
:0E024C0087120230A0000030A10029282C29C2
:02400E004A2F37
:00000001FF
